:020000040800F2
:1000000000A000207D5C0008814B00088D4B00089B
:10001000954B00089D4B0008A54B00080000000010
:10002000000000000000000000000000AD4B0008D0
:10003000B94B000800000000C54B00081D4800082F
:10004000CD5C0008CD5C0008CD5C0008CD5C0008EC
:10005000CD5C0008CD5C0008CD5C0008CD5C0008DC
:10006000CD5C0008CD5C0008CD5C0008CD5C0008CC
:10007000CD5C0008CD5C0008CD5C0008CD5C0008BC
:10008000CD5C0008CD5C0008CD5C0008CD5C0008AC
:10009000D14B0008CD5C0008CD5C0008CD5C0008A9
:1000A000CD5C0008CD5C0008CD5C0008CD5C00088C
:1000B000CD5C0008CD5C0008CD5C0008CD5C00087C
:1000C000CD5C0008CD5C0008CD5C0008CD5C00086C
:1000D000CD5C0008CD5C0008CD5C0008CD5C00085C
:1000E000CD5C0008CD5C0008DD4B0008CD5C00084D
:1000F000CD5C0008CD5C0008CD5C0008CD5C00083C
:10010000000000000000000000000000CD5C0008BE
:10011000CD5C0008CD5C0008CD5C0008CD5C00081B
:10012000CD5C0008CD5C0008CD5C0008CD5C00080B
:10013000CD5C0008CD5C000800000000000000005D
:10014000CD5C0008CD5C0008CD5C0008000000001C
:10015000000000000000000000000000000000009F
:100160000000000000000000CD5C0008CD5C00082D
:10017000CD5C00080000000000000000000000004E
:0801800000000000CD5C000846
:1001880010B5054C237833B9044810B10448AFF3CF
:1001980000800121217010BD5805002000000000DA
:1001A800985F000808B5064B1BB106480649AFF32F
:1001B80000800648016811B1054A02B1904708BDA0
:1001C80000000000985F00085C050020580500202A
:1001D8000000000080B483B000AF78604FF46D4336
:1001E800CEF200037A6842F0BF6242F40032DA606D
:1001F80007F10C07BD4680BC704700BF80B487B0CC
:1002080000AF78604FF000037B614FF000033B6163
:100218004FF00F03FB607B68DB78002B47D04FF46F
:100228006D43CEF20003DB686FEA030303F4E06377
:100238004FEA13237B617B69C3F104033B617B694C
:10024800FA6822FA03F3FB607B685B781A463B691D
:1002580002FA03F37B617B689B781A46FB681340BC
:100268007A6913437B617B694FEA03137B614FF41F
:100278006143CEF200037A68127811467A69D2B2E5
:100288005B1883F800234FF46143CEF200037A68C9
:1002980012784FEA5212D2B27968097801F01F0138
:1002A8004FF0010000FA01F143F8221014E04FF476
:1002B8006143CEF200037A6812784FEA5212D2B242
:1002C8007968097801F01F014FF0010000FA01F187
:1002D80002F1200243F8221007F11C07BD4680BC3A
:1002E800704700BF80B485B000AF786039604FF0C8
:1002F8000003FB607B681B6823F001027B681A60BF
:100308007B681B68FB60FA684EF2FF03C0F2CF03FC
:100318001340FB603B685A683B689B684FEA0323BD
:100328001343FA681343FB607B68FA681A603B68FA
:100338001B6823F070627B681A617B681B6843F056
:1003480001027B681A604FF00003FB607B68FA6863
:100358009A607B68FA68DA603B689A693B681B694F
:100368001343FB607B68FA689A607B689B6843F478
:1003780000427B689A603B68DB68FB607B681A68B0
:10038800FB681A437B681A607B685B68FB60FB68E4
:1003980023F0784323F40043FB603B685B69FA6809
:1003A8001343FB607B68FA685A6007F11407BD467F
:1003B80080BC704780B483B000AF78600B46FB7098
:1003C800FB78002B06D07B681B6843F001027B6832
:1003D8001A6005E07B681B6823F001027B681A60DD
:1003E80007F10C07BD4680BC704700BF80B487B0DA
:1003F80000AFF8607B600B467B8113467B724FF041
:1004080000037B61FB685B687B617A694FF4184382
:10041800CFF6004313407B617B894FEA83534FEA51
:1004280093537A7A4FEA024202F47F021A437B68B6
:100438001A433B6A13437A6913437B61FB687A6901
:100448005A6007F11C07BD4680BC704780B483B072
:1004580000AF78600B46FB70FA787B689A6207F108
:100468000C07BD4680BC704780B483B000AF78608D
:100478007B685B6ADBB2184607F10C07BD4680BC97
:10048800704700BF80B485B000AF786039604FF026
:100498000003BB604FF00003FB737B689B69BB6084
:1004A800BA683B681340BB60BB68002B03D04FF0B1
:1004B8000103FB7302E04FF00003FB73FB7B18465C
:1004C80007F11407BD4680BC704700BF80B483B0F5
:1004D80000AF786039607B683A68DA6107F10C0729
:1004E800BD4680BC704700BF80B483B000AF0346F0
:1004F800FB7141F20203C4F202034FF000021A70CA
:1005080041F20203C4F20203FA791A7007F10C07E8
:10051800BD4680BC704700BF80B582B000AF4FF0C9
:1005280000033B604FF00003FB714FF00003BB7109
:100538004FF0110000F0ECFB0346BB713B6803F180
:1005480001033B603B68B3F5A06F02D0BB79002B79
:10055800EED04FF0110000F0DBFB0346002B03D078
:100568004FF00103FB7102E04FF00003FB71FB79D0
:10057800184607F10807BD4680BD00BF80B483B0A8
:1005880000AF0346FB714FF06003C4F24223FA79CF
:100598001A6007F10C07BD4680BC704780B485B06F
:1005A80000AF78604FF00003FB604FF48053C4F253
:1005B80002035B68FB60FB6823F00303FB60FA68D7
:1005C8007B681343FB604FF48053C4F20203FA685C
:1005D8005A6007F11407BD4680BC704780B400AF6D
:1005E8004FF48053C4F202035B68DBB203F00C03E0
:1005F800DBB21846BD4680BC704700BF80B48BB0E4
:1006080000AF78604FF000033B624FF00003FB61DE
:100618004FF00003BB614FF000037B614FF0000314
:100628003B614FF000037B624FF00003FB604FF02B
:100638000003BB604FF48053C4F202035B6803F00D
:100648000C033B623B6A042B0AD0082B0FD0002B0B
:1006580048D17A684FF49053C0F27A03136048E0A7
:100668007A684FF49053C0F27A03136041E04FF474
:100678008053C4F202035B6803F47013FB614FF408
:100688008053C4F202035B6803F48033BB61FB69E7
:100698004FEA934303F10203FB61BB69002B08D1C6
:1006A800FA694FF41063C0F23D0303FB02F37B6267
:1006B80014E04FF48053C4F20203DB6A03F00F0323
:1006C80003F101037B614FF49053C0F27A037A6916
:1006D800B3FBF2F3FA6902FB03F37B627B687A6A85
:1006E8001A6006E07A684FF49053C0F27A031360F8
:1006F80000BF4FF48053C4F202035B6803F0F003B9
:100708003B623B6A4FEA13133B6240F20003C2F2BA
:1007180000033A6A9B181B78DBB2BB607B681A68D7
:10072800BB6822FA03F27B685A604FF48053C4F224
:1007380002035B6803F4E0633B623B6A4FEA1323FE
:100748003B6240F20003C2F200033A6A9B181B782E
:10075800DBB23B617B685A683B6922FA03F27B682B
:100768009A604FF48053C4F202035B6803F4605349
:100778003B623B6A4FEAD3233B6240F20003C2F27A
:1007880000033A6A9B181B78DBB2FB607B685A68E7
:10079800FB6822FA03F27B68DA604FF48053C4F2F4
:1007A8000203DB6A03F4F8733B623B6A4FEA1313F4
:1007B8003B6240F21003C2F200033A6A33F8123087
:1007C8009BB23B613B6903F01003002B06D07A6AA9
:1007D8003B69B2FBF3F27B681A6103E07B681A6835
:1007E8007B681A614FF48053C4F20203DB6A03F496
:1007F80078533B623B6A4FEA53233B6240F2100353
:10080800C2F200033A6A33F812309BB23B613B698B
:1008180003F01003002B06D07A6A3B69B2FBF3F2AF
:100828007B685A6103E07B681A687B685A614FF4F9
:100838008053C4F202031B6B03F01003002B06D194
:100848007A684FF49053C0F27A03936103E07B68AF
:100858001A687B689A614FF48053C4F202031B6BD9
:1008680003F02003002B06D17A684FF49053C0F2AE
:100878007A03D36103E07B681A687B68DA614FF416
:100888008053C4F202031B6B03F48073002B0ED059
:100898007B681A687B6A9A4209D1FA68BB689A42EF
:1008A80005D17B6A4FEA43027B681A6203E07B68E2
:1008B800DA687B681A624FF48053C4F202031B6B38
:1008C80003F40073002B0ED07B681A687B6A9A4287
:1008D80009D1FA68BB689A4205D17B6A4FEA43029C
:1008E8007B685A6203E07B68DA687B685A624FF477
:1008F8008053C4F202031B6B03F00303002B04D1E3
:100908007B68DA687B689A622AE04FF48053C4F205
:1009180002031B6B03F00303012B04D17B681A68E5
:100928007B689A621CE04FF48053C4F202031B6B8D
:1009380003F00303022B04D17B684FF400429A6250
:100948000EE04FF48053C4F202031B6B03F0030361
:10095800032B05D17A684FF49053C0F27A0393625F
:100968004FF48053C4F202031B6B03F44033002B93
:1009780004D17B689A687B68DA622DE04FF4805373
:10098800C4F202031B6B03F44033B3F5803F04D178
:100998007B681A687B68DA621EE04FF48053C4F201
:1009A80002031B6B03F44033B3F5003F04D17B68AB
:1009B8004FF40042DA620FE04FF48053C4F20203AE
:1009C8001B6B03F44033B3F5403F05D17A684FF40D
:1009D8009053C0F27A03D3624FF48053C4F20203F7
:1009E8001B6B03F44023002B04D17B689A687B6857
:1009F8001A632DE04FF48053C4F202031B6B03F417
:100A08004023B3F5802F04D17B681A687B681A638A
:100A18001EE04FF48053C4F202031B6B03F440231F
:100A2800B3F5002F04D17B684FF400421A630FE03E
:100A38004FF48053C4F202031B6B03F44023B3F555
:100A4800402F05D17A684FF49053C0F27A031363AC
:100A58004FF48053C4F202031B6B03F44013002BC2
:100A680004D17B689A687B685A632DE04FF4805301
:100A7800C4F202031B6B03F44013B3F5801F04D1C7
:100A88007B681A687B685A631EE04FF48053C4F28F
:100A980002031B6B03F44013B3F5001F04D17B68FA
:100AA8004FF400425A630FE04FF48053C4F202033C
:100AB8001B6B03F44013B3F5401F05D17A684FF45C
:100AC8009053C0F27A0353634FF48053C4F2020385
:100AD8001B6B03F44003002B04D17B689A687B6886
:100AE8009A632DE04FF48053C4F202031B6B03F4A6
:100AF8004003B3F5800F04D17B681A687B689A635A
:100B08001EE04FF48053C4F202031B6B03F440034E
:100B1800B3F5000F04D17B684FF400429A630FE0ED
:100B28004FF48053C4F202031B6B03F44003B3F584
:100B3800400F05D17A684FF49053C0F27A0393635B
:100B480007F12C07BD4680BC704700BF80B483B056
:100B580000AF78604FF0D803C4F242237A681A6075
:100B680007F10C07BD4680BC704700BF80B483B056
:100B780000AF78600B46FB70FB78002B0CD04FF46D
:100B88008053C4F202034FF48052C4F20202516946
:100B98007A680A435A610DE04FF48053C4F20203A5
:100BA8004FF48052C4F2020251697A686FEA020275
:100BB8000A405A6107F10C07BD4680BC704700BF68
:100BC80080B483B000AF78600B46FB70FB78002BD5
:100BD8000CD04FF48053C4F202034FF48052C4F295
:100BE800020291697A680A439A610DE04FF48053D2
:100BF800C4F202034FF48052C4F2020291697A6887
:100C08006FEA02020A409A6107F10C07BD4680BCF0
:100C1800704700BF80B483B000AF78600B46FB70AC
:100C2800FB78002B0CD04FF48053C4F202034FF42E
:100C38008052C4F20202D1697A680A43DA610DE08F
:100C48004FF48053C4F202034FF48052C4F20202FC
:100C5800D1697A686FEA02020A40DA6107F10C0783
:100C6800BD4680BC704700BF80B483B000AF7860D9
:100C78000B46FB70FB78002B0CD04FF48053C4F26A
:100C880002034FF48052C4F20202D1687A680A4320
:100C9800DA600DE04FF48053C4F202034FF480523F
:100CA800C4F20202D1687A686FEA02020A40DA6086
:100CB80007F10C07BD4680BC704700BF80B483B005
:100CC80000AF78600B46FB70FB78002B0CD04FF41C
:100CD8008053C4F202034FF48052C4F20202116935
:100CE8007A680A431A610DE04FF48053C4F2020394
:100CF8004FF48052C4F2020211697A686FEA020264
:100D08000A401A6107F10C07BD4680BC704700BF56
:100D180080B487B000AF0346FB714FF00003FB605F
:100D28004FF000037B614FF00003FB74FB794FEA3F
:100D38005313DBB2FB60FB68002B06D14FF48053E2
:100D4800C4F202031B687B6119E0FB68012B06D122
:100D58004FF48053C4F202031B6A7B610FE0FB6807
:100D6800042B06D14FF48053C4F202035B687B6105
:100D780005E04FF48053C4F202035B6A7B61FB79A0
:100D880003F01F03FB60FB687A6922FA03F303F0A0
:100D98000103002B03D04FF00103FB7402E04FF076
:100DA8000003FB74FB7C184607F11C07BD4680BC9A
:100DB800704700BF90B484B000AF02460B46FA718A
:100DC800BB714FF00003FB60BB7903F003034FEAEC
:100DD80083034FF00F0202FA03F3FB604FF00003A6
:100DE800C4F20103BA794FEA9202D2B210464FF028
:100DF8000002C4F20102B9794FEA9101C9B201F1C6
:100E0800020152F82110FA686FEA0202114000F15B
:100E1800020243F822104FF00003C4F20103BA792A
:100E28004FEA9202D2B210464FF00002C4F2010219
:100E3800B9794FEA9101C9B201F1020152F82110C2
:100E4800FC79BA7902F003024FEA820204FA02F24C
:100E5800114300F1020243F8221007F11007BD46C2
:100E680090BC704780B485B000AF78604FF0000345
:100E7800FB604FF48063C4F20103FB607B689B79DD
:100E8800002B00F011817B681B684FEA531303F1B4
:100E9800007303F502634FEA43131A467B681B6825
:100EA8004FEA531303F1007303F502634FEA431348
:100EB80019687B681B6803F01F034FF0010000FAF4
:100EC80003F36FEA03030B4013607B681B684FEA68
:100ED80053134FEA431240F20443C4F20103D318F8
:100EE8001A467B681B684FEA53134FEA431140F2D6
:100EF8000443C4F20103CB1819687B681B6803F02C
:100F08001F034FF0010000FA03F36FEA03030B40DD
:100F180013607B681B791A467B681B684FEA53137A
:100F28004FEA4313D318FA68D318FB60FB68FA68D2
:100F380011687A68126802F01F024FF0010000FA87
:100F480002F20A431A604FF48063C4F20103FB60A3
:100F58007B681B684FEA53134FEA43124FF48163CF
:100F6800C4F20103D3181A467B681B684FEA53136F
:100F78004FEA43114FF48163C4F20103CB18196897
:100F88007B681B6803F01F034FF0010000FA03F3AE
:100F98006FEA03030B4013607B681B684FEA531327
:100FA8004FEA431240F20C43C4F20103D3181A4625
:100FB8007B681B684FEA53134FEA431140F20C4316
:100FC800C4F20103CB1819687B681B6803F01F0380
:100FD8004FF0010000FA03F36FEA03030B401360BC
:100FE8007B685B79102B44D17B681B684FEA5313ED
:100FF8004FEA43124FF48163C4F20103D3181A462F
:101008007B681B684FEA53134FEA43114FF481631F
:10101800C4F20103CB1819687B681B6803F01F032F
:101028004FF0010000FA03F30B4313607B681B6861
:101038004FEA53134FEA431240F20C43C4F2010340
:10104800D3181A467B681B684FEA53134FEA4311BB
:1010580040F20C43C4F20103CB1819687B681B6883
:1010680003F01F034FF0010000FA03F30B43136072
:1010780036E07B685B791A467B681B684FEA531336
:101088004FEA4313D318FA68D318FB60FB68FA6871
:1010980011687A68126802F01F024FF0010000FA26
:1010A80002F20A431A601BE07B681B791A467B68C8
:1010B8001B684FEA53134FEA4313D318FA68D3183F
:1010C800FB60FB68FA6811687A68126802F01F0210
:1010D8004FF0010000FA02F26FEA02020A401A60B9
:1010E80007F11407BD4680BC704700BF80B483B0C9
:1010F80000AF78607B684FEA53134FEA431240F21F
:101108001443C4F20103D3187A6802F01F024FF0A7
:10111800010101FA02F21A6007F10C07BD4680BC12
:10112800704700BF80B582B000AF78607A684FF42E
:101138004053C4F201039A420CD14FF480504FF04F
:101148000101FFF791FD4FF480504FF00001FFF7C8
:101158008BFD26E07A684FF46053C4F200039A428C
:101168000CD14FF480404FF00101FFF7A7FD4FF479
:1011780080404FF00001FFF7A1FD12E07A684FF4BC
:101188007053C4F200039A420BD14FF400404FF061
:101198000101FFF793FD4FF400404FF00001FFF706
:1011A8008DFD07F10807BD4680BD00BF80B485B03E
:1011B80000AF786039604FF00003FB813B685B88C3
:1011C800B3F5827F36D17B681B88FB81FB8903F4EA
:1011D8004153FB813B681A883B685B8813439AB28A
:1011E8003B68D9883B681B890B4399B23B6858898F
:1011F8003B689B89034398B23B68DB8903439BB2F6
:101208000B439BB213439AB2FB891343FB817B6860
:10121800FA891A807B689B88FB81FB8923F47063B9
:10122800FB813B689A88FB891343FB817B68FA89B9
:101238009A8035E07B689B88FB81FB8923F4706387
:10124800FB813B689A88FB891343FB817B68FA8999
:101258009A807B681B88FB81FB8903F44153FB81DF
:101268003B681A883B685B8813439AB23B68D98805
:101278003B681B890B4399B23B6858893B689B893B
:10128800034398B23B68DB8903439BB20B439BB291
:1012980013439AB2FB891343FB817B68FA891A804E
:1012A8007B689B8B9BB223F400639AB27B689A831A
:1012B8003B681A8A7B681A8207F11407BD4680BC0E
:1012C800704700BF80B483B000AF78600B46FB70F6
:1012D800FB78002B08D07B681B889BB243F0400347
:1012E8009AB27B681A8007E07B681B889BB223F060
:1012F80040039AB27B681A8007F10C07BD4680BC90
:10130800704700BF80B483B000AF78600B467B8025
:101318007B689B889BB223F480539AB27B689A803F
:101328007B689B889AB27B8813439AB27B689A80C1
:1013380007F10C07BD4680BC704700BF80B485B07C
:1013480000AF78600B46FB704FF00003FB607B68D2
:10135800FB60FB6803F10C03FB60FB68FA781A700A
:1013680007F11407BD4680BC704700BF80B485B044
:1013780000AF78604FF00003FB607B68FB60FB68A0
:1013880003F10C03FB60FB681B78DBB2184607F11E
:101398001407BD4680BC704780B485B000AF786044
:1013A8000B467B804FF00003FB737B681B899AB266
:1013B8007B8813409BB2002B03D04FF00103FB73D3
:1013C80002E04FF00003FB73FB7B184607F114079C
:1013D800BD4680BC704700BF80B487B000AF78605E
:1013E80039604FF000037B614FF000033B614FF021
:1013F8000003FB604FF000037B618CE07B694FF0DA
:10140800010202FA03F33B613B681A683B69134027
:10141800FB60FA683B699A4279D13B681B79012BDA
:1014280003D03B681B79022B3AD17B689A687B69A9
:101438004FEA43034FF0030101FA03F36FEA030392
:101448001A407B689A607B689A683B685B791946A2
:101458007B694FEA430301FA03F31A437B689A60F6
:101468007B689B889AB27B699BB24FF0010101FAB5
:1014780003F39BB26FEA03039BB213409AB27B68F3
:101488009A807B689B889AB23B689B7919467B69EE
:101498009BB201FA03F39BB213439AB27B689A801A
:1014A8007B681A687B694FEA43034FF0030101FA2E
:1014B80003F36FEA03031A407B681A607B681A68B3
:1014C8003B681B7919467B694FEA430301FA03F32A
:1014D8001A437B681A607B68DA687B699BB24FEABB
:1014E80043034FF0030101FA03F36FEA03031A40C1
:1014F8007B68DA607B68DA683B68DB7919467B6968
:101508004FEA430301FA03F31A437B68DA607B6905
:1015180003F101037B617B690F2B7FF66FAF07F146
:101528001C07BD4680BC704780B483B000AF7860AC
:101538000B467B807A887B689A6107F10C07BD4669
:1015480080BC704780B483B000AF78600B467B8066
:101558007B687A881A8507F10C07BD4680BC7047FE
:1015680080B485B000AF786013460A467A807B70F5
:101578004FF00003FB604FF00003BB607A787B8874
:1015880003F007034FEA830302FA03F3FB607B8847
:101598004FEAD3039BB21A467B884FEAD3039BB228
:1015A80019467B6801F1080153F821107B8803F084
:1015B80007034FEA83034FF00F0000FA03F36FEAC3
:1015C800030319407B6802F1080243F822107B8864
:1015D8004FEAD3039BB21A467B6802F1080253F81C
:1015E8002220FB681343BB607B884FEAD3039BB27E
:1015F8001A467B6802F10802B96843F8221007F11D
:101608001407BD4680BC704780B489B000AF7860CD
:1016180013460A467A803B803B8803F101034FEA70
:1016280063037B617B8803F1005303F540534FEA62
:101638004303BB617B69FB6122E07B681B783B61EC
:101648007B6803F101037B607B681B784FEA032307
:101658001A463B691343FB60FB689AB2BB691A8060
:10166800BB6903F10203BB61BB6903F10203BB6100
:101678007B6803F101037B60FB6903F1FF33FB61C6
:10168800FB69002BD9D107F12407BD4680BC704700
:1016980080B487B000AF786013460A467A803B80F2
:1016A8003B8803F101034FEA6303FB607B8803F186
:1016B800005303F540534FEA43033B61FB687B61EA
:1016C80014E03B691B689AB27B681A807B6803F157
:1016D80001037B603B6903F104033B617B6803F111
:1016E80001037B607B6903F1FF337B617B69002B1E
:1016F800E7D107F11C07BD4680BC704780B400AF36
:1017080045F64443C4F200034FF000021A6040F269
:10171800B853C2F200034FF43F421A8045F64043E3
:10172800C4F2000340F2B852C2F2000212881A60F2
:101738004FF000031846BD4680BC704780B582B0A4
:1017480000AF0346FB80FB88002B0AD140F2B4535C
:10175800C2F200031B684FF001021A824FF0000327
:101768000DE040F2B053C2F200031B681B689847B3
:1017780040F2B453C2F200031B6803F10A0318468F
:1017880007F10807BD4680BD80B500AF40F2B453ED
:10179800C2F200031B68DA7840F25803C2F2000371
:1017A8005B789A4225D840F2B453C2F200031B6812
:1017B8009B78002B1DD140F2B453C2F200031B6882
:1017C8009B88002B15D140F2B453C2F200031A686B
:1017D80040F2B453C2F200031B68DB78937240F204
:1017E800B053C2F200031B685B6898474FF00003D0
:1017F80001E04FF00203184680BD00BF80B582B0FB
:1018080000AF0346FB80FB88002B0AD140F2B4539B
:10181800C2F200031B684FF001021A824FF0000366
:101828000DE040F2B053C2F200031B689B68984772
:1018380040F2B453C2F200031B6803F10C031846CC
:1018480007F10807BD4680BD80B582B000AF40F201
:101858008C53C2F200031B689A6940F2B453C2F277
:1018680000031B68597940F2B453C2F200031B68A5
:10187800DB780846194690470346FB7140F2B4539B
:10188800C2F200031B689B7A002B3AD0FB79002B2D
:101898000FD140F2B453C2F200031B681B79002B2E
:1018A80007D140F2B453C2F200031B689B78002BA7
:1018B80002D04FF0020326E0FB79002B21D140F241
:1018C800B053C2F200031B68DB68984740F2B45378
:1018D800C2F200031A6840F2B453C2F200031B6854
:1018E8005B79D37240F2B453C2F200031A6840F233
:1018F800B453C2F200031B68DB7813734FF0000384
:1019080001E04FF00203184607F10807BD4680BD05
:1019180080B584B000AF0346FB80FB88002B0AD15A
:1019280040F2B453C2F200031B684FF002021A825D
:101938004FF00003C5E040F28053C2F200034FF0BD
:1019480000021A8040F2B453C2F200031B681B78ED
:1019580003F07F03002B47D140F2B453C2F20003D7
:101968001B685B7AFB73FB7B03F02003002B0DD015
:1019780040F28053C2F200031B7843F00203DAB24C
:1019880040F28053C2F200031A700CE040F2805318
:10199800C2F200031B7823F00203DAB240F280534C
:1019A800C2F200031A70FB7B03F04003002B0DD03A
:1019B80040F28053C2F200031B7843F00103DAB20D
:1019C80040F28053C2F200031A706FE040F2805375
:1019D800C2F200031B7823F00103DAB240F280530D
:1019E800C2F200031A7061E040F2B453C2F200037D
:1019F8001B681B7803F07F03012B04D140F280534E
:101A0800C2F200035DE040F2B453C2F200031B6867
:101A18001B7803F07F03022B45D140F2B453C2F286
:101A280000031B685B79BB73BB7B03F00F037B73FD
:101A3800BB7B5BB2002B1ADA7B7B4FEA830303F193
:101A4800804303F5B8431B689BB203F03003102BA7
:101A58002CD140F28053C2F200031B7843F00103FB
:101A6800DAB240F28053C2F200031A701EE07B7BA8
:101A78004FEA830303F1804303F5B8431B689BB225
:101A880003F44053B3F5805F10D140F28053C2F2A3
:101A980000031B7843F00103DAB240F28053C2F22C
:101AA80000031A7002E04FF000030AE040F2B0535E
:101AB800C2F200031B681B69984740F28053C2F2C8
:101AC8000003184607F11007BD4680BD90B587B0E2
:101AD80000AF40F2B453C2F200031B681B7803F056
:101AE8007F033B613B69002B11D140F2B453C2F232
:101AF80000031A6840F2B453C2F200031B685B7A11
:101B080023F02003DBB253724FF00003F1E03B698E
:101B1800022B40F0EC8040F2B453C2F200031B6881
:101B28005B88002B07D140F2B453C2F200031B6854
:101B38001B79002B02D04FF00203DAE040F2580381
:101B4800C2F20003FB6040F2B453C2F200031B6808
:101B58005B79BB60BB6823F080037B607B683B607C
:101B680040F2B453C2F200031B685B79DBB25BB28C
:101B7800002B0CDA3B684FEA830303F1804303F53B
:101B8800B8431B689BB203F030037B610BE03B68F2
:101B98004FEA830303F1804303F5B8431B689BB204
:101BA80003F440537B61FB681B781A467B689A42B2
:101BB8000AD97B69002B07D040F2B453C2F2000364
:101BC8001B689B7A002B02D14FF0020391E0BB689F
:101BD80003F08003002B19D03B684FEA830303F11D
:101BE800804303F5B8431B689BB203F03003102B06
:101BF80073D13B68DBB2184601F040F93B68DBB2B1
:101C080018464FF0300100F0EDFF66E03B684FEA00
:101C1800830303F1804303F5B8431B689BB203F4C5
:101C28004053B3F5805F58D13B68002B2ED13B68F9
:101C3800DAB240F25C03C2F2000393F82C3010468B
:101C4800194601F0F3F93B684FEA830303F1804337
:101C580003F5B8431B689BB223F4804323F0700359
:101C68009CB284F480539CB284F400539CB23B68C9
:101C78004FEA830303F1804202F5B84248F2800339
:101C8800CFF6FF7323439BB2136026E03B68DBB2B9
:101C9800184601F0C3F83B684FEA830303F1804319
:101CA80003F5B8431B689BB223F4804323F0700309
:101CB8009CB284F480539CB284F400539CB23B6879
:101CC8004FEA830303F1804202F5B84248F28003E9
:101CD800CFF6FF7323439BB2136040F2B053C2F2B6
:101CE80000031B685B6998474FF0000301E04FF061
:101CF8000203184607F11C07BD4690BD90B585B094
:101D080000AF40F2B453C2F200031B685B79BB60BA
:101D1800BB6823F080037B607B683B6040F2B45370
:101D2800C2F200031B685B79DBB25BB2002B0CDAF2
:101D38003B684FEA830303F1804303F5B8431B680C
:101D48009BB203F03003FB600BE03B684FEA830370
:101D580003F1804303F5B8431B689BB203F4405377
:101D6800FB6040F25803C2F200031B781A463B6836
:101D78009A4212D940F2B453C2F200031B685B883E
:101D8800002B0AD1FB68002B07D040F2B453C2F2F3
:101D980000031B689B7A002B02D14FF002034CE032
:101DA800BB6803F08003002B1FD03B684FEA830316
:101DB80003F1804303F5B8431B689BB223F4E04367
:101DC80023F040039CB284F010039CB23B684FEAB6
:101DD800830303F1804202F5B84248F28003CFF64C
:101DE800FF7323439BB213601EE03B684FEA8303F3
:101DF80003F1804303F5B8431B689BB223F4804387
:101E080023F070039CB284F480539CB23B684FEA81
:101E1800830303F1804202F5B84248F28003CFF60B
:101E2800FF7323439BB2136040F2B053C2F2000326
:101E38001B689B6998474FF00003184607F1140781
:101E4800BD4690BD80B500AF40F2B453C2F2000366
:101E58001A6840F2B453C2F200031B685B7A43F07D
:101E68002003DBB2537240F2B053C2F200031B6886
:101E7800DB6998474FF00003184680BD80B485B0F1
:101E880000AF03463960FB8040F2B453C2F200034E
:101E98001B685B8AFB60FB88002B0ED140F2B453B1
:101EA800C2F200031B683A689188FA6892B28A1AEB
:101EB80092B21A824FF0000303E03B681A68FB688D
:101EC800D318184607F11407BD4680BC704700BFF9
:101ED80080B584B000AF40F2B453C2F200031B686F
:101EE80003F11003BB60BB681B887B60BB689B6801
:101EF800002B2FD07B68002B2CD0BB689B88FB6005
:101F0800FA687B689A4201D97B68FB60BB689B686A
:101F1800FA6892B2104698473860BB681A88FB681E
:101F28009BB2D31A9AB2BB681A80BB685A88FB68FE
:101F38009BB2D3189AB2BB685A804FF0000001F0E8
:101F480035F803461A46FB689BB2386811461A46AC
:101F5800FFF79EFBBB681B88002B13D040F282530F
:101F6800C2F200034FF440521A804FF000004FF0C5
:101F7800000101F03BF840F28453C2F200034FF035
:101F880030021A80BB681A88BB689B889A4208D3BB
:101F980040F2B453C2F200031B684FF003021A72F6
:101FA80030E0BB681B88002B08D040F2B453C2F263
:101FB80000031B684FF005021A7223E0BB681B88F8
:101FC800002B1FD140F2B453C2F200031B684FF03C
:101FD80006021A7245F65043C4F200031B689BB20E
:101FE8001A4643F20203C2F20003D3184FEA43032E
:101FF8004FF000021A6040F28453C2F200034FF01F
:1020080030021A8007F11007BD4680BD80B586B042
:1020180000AF40F2B453C2F200031B6803F110038F
:10202800FB60FB681B88BB6040F2B453C2F200033C
:102038001B681B7A7B61BB68002B37D17B69042B3B
:1020480034D140F27453C2F200031B78012B22D121
:1020580045F65043C4F200031B689BB21A4643F28C
:102068000203C2F20003D3184FEA43034FF0000201
:102078001A6040F28453C2F200034FF030021A8013
:102088004FF004037B6140F27453C2F200034FF037
:1020980000021A7056E04FF007037B6140F2845348
:1020A800C2F200034FF010021A804BE0FB689B88D5
:1020B8003B61BA683B699A4202D84FF0040301E0D9
:1020C8004FF002037B613A69BB689A4201D9BB6849
:1020D8003B61FB689B683A6992B210469847786002
:1020E8004FF0000000F044FF03461A463B699BB2DC
:1020F800786811461A46FFF787FA3B699BB24FF09A
:102108000000194600F072FFFB681A883B699BB211
:10211800D31A9AB2FB681A80FB685A883B699BB24B
:10212800D3189AB2FB685A8040F28453C2F2000373
:102138004FF030021A8040F28253C2F200034FF48B
:1021480040521A8040F2B453C2F200031B687A6905
:10215800D2B21A7207F11807BD4680BD80B584B0A7
:1021680000AF4FF00203FB7340F2B453C2F2000316
:102178001B685B787B6040F2B453C2F200031B68B3
:102188001B7803F07F03002B76D17B68092B04D1E1
:10219800FFF7FAFA0346FB739EE07B68052B29D10B
:1021A80040F2B453C2F200031B68DB78DBB25BB2C7
:1021B800002B17DB40F2B453C2F200031B689B7874
:1021C800002B0FD140F2B453C2F200031B689B8866
:1021D800002B07D140F2B453C2F200031B689B7A6C
:1021E800002B03D04FF00803BB60AEE04FF00003B4
:1021F800FB7371E07B68032B18D140F2B453C2F231
:1022080000031B68DB78012B0CD140F2B453C2F2F7
:1022180000031B689B88002B04D1FFF713FE0346BD
:10222800FB7359E04FF00203FB7356E07B68012B08
:1022380052D140F2B453C2F200031B68DB78012B81
:1022480016D140F2B453C2F200031B689B88002BDE
:102258000ED140F2B453C2F200031B685B7A03F05C
:102268002003002B04D0FFF731FC0346FB7334E056
:102278004FF00203FB732FE040F2B453C2F20003A5
:102288001B681B7803F07F03012B07D17B680B2B9E
:1022980023D1FFF7D9FA0346FB731EE040F2B4538B
:1022A800C2F200031B681B7803F07F03022B0FD1D7
:1022B8007B68012B04D1FFF709FC0346FB730CE094
:1022C8007B68032B09D1FFF719FD0346FB7304E074
:1022D8004FF00203FB7300E000BFFB7B002B12D022
:1022E80040F28C53C2F200031B685B697A68D2B271
:1022F800104698470346FB73FB7B032B03D14FF033
:102308000903BB6021E0FB7B002B03D04FF00803DF
:10231800BB601AE04FF00603BB6045F65043C4F2B9
:1023280000031B689BB21A4643F20203C2F2000381
:10233800D3184FEA43034FF000021A6040F2845367
:10234800C2F200034FF030021A8040F2B453C2F2D6
:1023580000031B68BA68D2B21A7200BF07F11007EF
:10236800BD4680BD80B58AB000AF40F2B453C2F21A
:1023780000031B685B78BB614FF000037B624FF082
:1023880000037B61BB69062B33D140F2B453C2F220
:1023980000031B681B7803F07F03002B40F03C818F
:1023A80040F2B453C2F200031B689B78FB74FB7CB9
:1023B800012B07D140F28C53C2F200031B68DB6982
:1023C8007B6229E1FB7C022B07D140F28C53C2F2DD
:1023D80000031B681B6A7B621EE1FB7C032B40F039
:1023E8001B8140F28C53C2F200031B685B6A7B625C
:1023F80012E1BB69002B40F0B58040F2B453C2F241
:1024080000031B685B88002B40F0AC8040F2B4539B
:10241800C2F200031B68DB88022B40F0A38040F265
:10242800B453C2F200031B681B79002B40F09A805A
:1024380040F2B453C2F200031B681B7803F07F0319
:10244800002B0DD140F2B453C2F200031B689B88E5
:10245800002B05D141F61913C0F600037B62DAE0C0
:1024680040F2B453C2F200031B681B7803F07F03E9
:10247800012B22D140F28C53C2F200031B689A69E7
:1024880040F2B453C2F200031B685B7918464FF060
:10249800000190470346002B40F0BD8040F2B45342
:1024A800C2F200031B689B7A002B00F0B48041F64F
:1024B8001913C0F600037B62ADE040F2B453C2F2D8
:1024C80000031B681B7803F07F03022B40F0A380F6
:1024D80040F2B453C2F200031B685B7903F00F03A8
:1024E800FB6040F2B453C2F200031B685B7903F04F
:1024F8007003BB6040F2B453C2F200031B685B79FF
:10250800DBB25BB2002B0CDAFB684FEA830303F102
:10251800804303F5B8431B689BB203F03003FB61AB
:102528000BE0FB684FEA830303F1804303F5B843EC
:102538001B689BB203F44053FB6140F25803C2F29C
:1025480000031B781A46FB689A4264D9BB68002BC3
:1025580061D1FB69002B5ED041F61913C0F6000368
:102568007B6258E0BB69082B0FD140F2B453C2F22A
:1025780000031B681B7803F07F03002B4CD141F24A
:102588004573C0F600037B6246E0BB690A2B43D162
:1025980040F2B453C2F200031B681B7803F07F03B8
:1025A800012B39D140F2B453C2F200031B689B7A65
:1025B800002B31D040F2B453C2F200031B685B8891
:1025C800002B29D140F2B453C2F200031B681B79D7
:1025D800002B21D140F2B453C2F200031B68DB8800
:1025E800012B19D140F28C53C2F200031B689A697F
:1025F80040F2B453C2F200031B685B7918464FF0EF
:10260800000190470346002B06D141F60503C0F6AA
:1026180000037B6200E000BF7B6A002B17D040F20A
:10262800B453C2F200031B687A6992B25A8240F22C
:10263800B453C2F200031B687A6A9A617B6A4FF04E
:10264800000098474FF0000387F823301DE040F260
:102658008C53C2F200031B681A6940F2B453C2F2E9
:1026680000031B685B7818469047034687F82330B9
:1026780097F82330032B08D140F2B453C2F2000379
:102688001B684FF009021A72ACE040F2B453C2F270
:1026980000031B681A8A4FF6FF739A4208D140F26A
:1026A800B453C2F200031B684FF009021A7299E092
:1026B80097F82330022B07D040F2B453C2F200033C
:1026C8001B681B8A002B08D140F2B453C2F20003E6
:1026D8001B684FF008021A7284E040F2B453C2F249
:1026E80000031B681B78DBB25BB2002B6ADA40F28E
:1026F800B453C2F200031B68DB887B6040F2B4531A
:10270800C2F200031B681B8A1A467B689A4208D9E2
:1027180040F2B453C2F200031B687A6892B21A827C
:1027280040E040F2B453C2F200031B681A8A40F238
:10273800B453C2F200031B68DB889A4232D240F2DB
:10274800B453C2F200031B681A8A40F28C53C2F2D7
:1027580000031B6893F82C309A4207D240F2745356
:10276800C2F200034FF000021A701BE040F2B453AB
:10277800C2F200031B681B8A1A4640F28C53C2F24D
:1027880000031B6893F82C3092FBF3F103FB01F371
:10279800D31A002B06D140F27453C2F200034FF053
:1027A80001021A7040F2B453C2F200031A6840F2F0
:1027B8008C53C2F200031B6893F82C309382FFF706
:1027C80025FC0EE040F2B453C2F200031B684FF040
:1027D80003021A7240F28253C2F200034FF44052CD
:1027E8001A8000BF07F12807BD4680BD90B583B0A9
:1027F80000AF4FF00103FB8045F65043C4F20003DD
:102808001B689BB21A4643F20403C2F20003D318B2
:102818004FEA43031B689BB24FEA430303F180432B
:1028280003F5C0433B6040F2B453C2F200031B6897
:102838001B7A092B4DD040F2B453C2F200031A6838
:102848003B681978117003F101033B6040F2B453FF
:10285800C2F200031A683B681978517003F101034A
:102868003B603A68FB884FEA4303D3183B6040F269
:10287800B453C2F200031C683B681A8803F10203D0
:102888003B60104600F066FD034663803A68FB88AB
:102898004FEA4303D3183B6040F2B453C2F200033B
:1028A8001C683B681A8803F102033B60104600F07D
:1028B80051FD0346A3803A68FB884FEA4303D318C7
:1028C8003B6040F2B453C2F200031B683A681288B6
:1028D800DA8040F2B453C2F200031B684FF00102E1
:1028E8001A7240F2B453C2F200031B68DB88002B53
:1028F80002D1FFF733FC01E0FFF734FD00F0AAF83E
:102908000346184607F10C07BD4690BD80B582B056
:1029180000AF40F2B453C2F200031B681B7A7B601D
:102928007B68022B02D07B68042B09D1FFF76EFB72
:1029380040F2B453C2F200031B681B7A7B6032E09A
:102948007B68062B2CD140F2B453C2F200031B68FB
:102958005B78052B19D140F2B453C2F200031B680F
:102968001B7803F07F03002B0FD140F2B453C2F25F
:1029780000031B68DB78184600F09CF840F2B0535F
:10298800C2F200031B681B6A984740F28C53C2F2DC
:1029980000031B689B6898474FF008037B6002E0C0
:1029A8004FF008037B6040F2B453C2F200031B6887
:1029B8007A68D2B21A7200F04DF80346184607F149
:1029C8000807BD4680BD00BF80B582B000AF40F2A9
:1029D800B453C2F200031B681B7A7B607B68022B2E
:1029E80002D07B68042B03D14FF008037B6020E002
:1029F8007B68032B02D07B68052B09D1FFF768FAA7
:102A080040F2B453C2F200031B681B7A7B6010E0EB
:102A18007B68072B0AD140F28C53C2F200031B6873
:102A2800DB6898474FF008037B6002E04FF008032B
:102A38007B6040F2B453C2F200031B687A68D2B2DA
:102A48001A7200F007F80346184607F10807BD4652
:102A580080BD00BF80B500AF40F25C03C2F2000346
:102A680093F82C304FF00000194600F0DFFA40F2DE
:102A7800B453C2F200031B681B7A082B0DD140F235
:102A88008253C2F200034FF480521A8040F28453FA
:102A9800C2F200034FF010021A8040F2B453C2F29F
:102AA80000031B681B7A092B14BF00230123DBB228
:102AB800184680BD80B485B000AF0346FB7140F274
:102AC8005803C2F200031B78BB604FF00003FB60A1
:102AD80021E0FB68DBB24FEA830303F1804303F58F
:102AE800B843FA68D2B24FEA820202F1804202F594
:102AF800B842126892B2114640F60F720A4042F488
:102B0800004242F08002F968C9B20A431A60FB68C1
:102B180003F10103FB60FA68BB689A42D9D345F612
:102B28004C43C4F20003FA7962F07F02D2B21A6011
:102B380007F11407BD4680BC704700BF80B400AFE2
:102B4800BD4680BC704700BF80B483B000AF034669
:102B5800FB8045F65043C4F20003F9884FF6F8723B
:102B68000A401A6007F10C07BD4680BC704700BFD9
:102B780080B483B000AF0346FB71FB794FEA83034F
:102B880003F1804303F5B8431B689BB2184607F16D
:102B98000C07BD4680BC704780B483B000AF0246C6
:102BA8000B46FA71BB80FB794FEA830303F180433C
:102BB80003F5B843FA794FEA820202F1804202F53E
:102BC800B842126892B222F4EC4222F0700291B23A
:102BD800BA880A4392B292B21A6007F10C07BD464E
:102BE80080BC704790B482B000AF02460B46FA71C1
:102BF800BB80FB794FEA830303F1804303F5B843B5
:102C08001B689BB223F4E04323F040039CB2BB88CB
:102C180003F010039BB2002B02D084F010039CB287
:102C2800BB8803F020039BB2002B02D084F0200362
:102C38009CB2FB794FEA830303F1804202F5B84264
:102C480048F28003CFF6FF7323439BB2136007F16A
:102C58000807BD4690BC704790B482B000AF0246EA
:102C68000B46FA71BB80FB794FEA830303F180437B
:102C780003F5B8431B689BB223F4804323F0700329
:102C88009CB2BB8803F480539BB2002B02D084F41F
:102C980080539CB2BB8803F400539BB2002B02D034
:102CA80084F400539CB2FB794FEA830303F180421A
:102CB80002F5B84248F28003CFF6FF7323439BB274
:102CC800136007F10807BD4690BC704790B482B006
:102CD80000AF0346FB71FB794FEA830303F180439E
:102CE80003F5B8431B689BB223F4E04323F0400389
:102CF8009CB284F010039CB284F020039CB2FB7950
:102D08004FEA830303F1804202F5B84248F2800398
:102D1800CFF6FF7323439BB2136007F10807BD4644
:102D280090BC704790B482B000AF0346FB71FB794A
:102D38004FEA830303F1804303F5B8431B689BB252
:102D480023F4804323F070039CB284F480539CB234
:102D580084F400539CB2FB794FEA830303F1804269
:102D680002F5B84248F28003CFF6FF7323439BB2C3
:102D7800136007F10807BD4690BC704780B483B064
:102D880000AF0346FB71FB794FEA830303F18042EE
:102D980002F5B842FB794FEA830303F1804303F558
:102DA800B8431B689BB223F4F8734FEA03534FEA06
:102DB80013539BB243F07F4343F47F0343F4004330
:102DC80043F080039BB29BB2136007F10C07BD462A
:102DD80080BC704780B483B000AF0346FB71FB79B9
:102DE8004FEA830303F1804303F5B843FA794FEAC6
:102DF800820202F1804202F5B842126892B211468C
:102E080040F60F720A4042F4404242F080021A60D3
:102E180007F10C07BD4680BC704700BF80B483B083
:102E280000AF0346FB71FB794FEA830303F180434C
:102E380003F5B8431B689BB203F48043002B18D0FA
:102E4800FB794FEA830303F1804303F5B843FA792A
:102E58004FEA820202F1804202F5B842126892B249
:102E6800114640F60F720A4042F4404242F0800296
:102E78001A6007F10C07BD4680BC704780B483B068
:102E880000AF0346FB71FB794FEA830303F18043EC
:102E980003F5B8431B689BB203F04003002B18D01E
:102EA800FB794FEA830303F1804303F5B843FA79CA
:102EB8004FEA820202F1804202F5B842126892B2E9
:102EC800114640F60F720A4042F4004242F0C00236
:102ED8001A6007F10C07BD4680BC704780B483B008
:102EE80000AF02460B46FA71BB8045F65043C4F268
:102EF80000031B689BB21A46FB794FEAC303D31839
:102F080003F1005303F540534FEA4303BA884FEAED
:102F1800520292B24FEA42021A6007F10C07BD460C
:102F280080BC704780B483B000AF02460B46FA718C
:102F3800BB8045F65043C4F200031B689BB21A4697
:102F4800FB794FEAC303D21843F20403C2F2000329
:102F5800D3184FEA4303BA884FEA520292B24FEAB3
:102F680042021A6007F10C07BD4680BC704700BFDB
:102F780080B483B000AF0346FB7145F65043C4F2FA
:102F880000031B689BB21A46FB794FEAC303D318A8
:102F980003F1005303F540534FEA43031B689BB208
:102FA800184607F10C07BD4680BC704780B483B053
:102FB80000AF0346FB7145F65043C4F200031B689B
:102FC8009BB21A46FB794FEAC303D21843F20403B3
:102FD800C2F20003D3184FEA43031B689BB218469A
:102FE80007F10C07BD4680BC704700BF80B483B0B2
:102FF80000AF02460B46FA71BB8045F65043C4F257
:1030080000031B689BB21A46FB794FEAC303D21828
:1030180043F20203C2F20003D3184FEA4303BA880B
:103028001A6007F10C07BD4680BC704780B485B0B4
:1030380000AF02460B46FA71BB8045F65043C4F216
:1030480000031B689BB21A46FB794FEAC303D218E8
:1030580043F20603C2F20003D3184FEA4303BB60EE
:10306800BB883E2B15D9BB884FEA5313FB81BB881D
:1030780003F01F03002B03D1FB8903F1FF33FB810E
:10308800FB894FEA832343F400431A46BB681A605E
:1030980012E0BB884FEA5303FB81BB8803F00103AE
:1030A800002B03D0FB8903F10103FB81FB894FEA65
:1030B80083231A46BB681A6007F11407BD4680BC13
:1030C800704700BF80B483B000AF13460246FA7160
:1030D8000A46BA807B8045F65043C4F200031B6859
:1030E8009BB21A46FB794FEAC303D31803F1005386
:1030F80003F540534FEA4303BA884FEA520292B2AB
:103108004FEA42021A6045F65043C4F200031B68B6
:103118009BB21A46FB794FEAC303D21843F2040361
:10312800C2F20003D3184FEA43037A884FEA5202E7
:1031380092B24FEA42021A6007F10C07BD4680BC02
:10314800704700BF80B487B000AF13460246FA71DB
:103158000A46BA71BB80BB79012B3FD145F6504373
:10316800C4F200031B689BB21A46FB794FEAC303FB
:10317800D21843F20203C2F20003D3184FEA430302
:103188003B61BB883E2B15D9BB884FEA5313FB82A2
:10319800BB8803F01F03002B03D1FB8A03F1FF3325
:1031A800FB82FB8A4FEA832343F400431A463B69B8
:1031B8001A602AE0BB884FEA5303FB82BB8803F0FE
:1031C8000103002B03D0FB8A03F10103FB82FB8A76
:1031D8004FEA83231A463B691A6016E0BB79022B33
:1031E80013D145F65043C4F200031B689BB21A463C
:1031F800FB794FEAC303D21843F20203C2F2000379
:10320800D3184FEA4303BA881A60BB79012B3FD120
:1032180045F65043C4F200031B689BB21A46FB797B
:103228004FEAC303D21843F20603C2F20003D318CD
:103238004FEA4303FB60BB883E2B15D9BB884FEA96
:103248005313BB82BB8803F01F03002B03D1BB8A37
:1032580003F1FF33BB82BB8A4FEA832343F4004365
:103268001A46FB681A602AE0BB884FEA5303BB8200
:10327800BB8803F00103002B03D0BB8A03F10103D1
:10328800BB82BB8A4FEA83231A46FB681A6016E0A2
:10329800BB79022B13D145F65043C4F200031B68D7
:1032A8009BB21A46FB794FEAC303D21843F20603CE
:1032B800C2F20003D3184FEA4303BA881A6007F131
:1032C8001C07BD4680BC704780B483B000AF02467F
:1032D8000B46FA71BB71BB79012B19D1FB794FEA07
:1032E800830303F1804303F5B843FA794FEA820276
:1032F80002F1804202F5B842126892B2114640F6D5
:103308000F720A4042F4004242F0C0021A601BE009
:10331800BB79022B18D1FB794FEA830303F1804371
:1033280003F5B843FA794FEA820202F1804202F5C6
:10333800B842126892B2114640F60F720A4042F43F
:10334800404242F080021A6007F10C07BD4680BC7B
:10335800704700BF80B485B000AF0346FB80FB8890
:10336800FB73FB884FEA13239BB29AB2FB7B4FEAAD
:1033780003239BB213439BB2BB81BB89184607F159
:103388001407BD4680BC704790B583B000AF4FF0BE
:103398000003FB80F5E140F28473C2F200031B884E
:1033A8009BB2DBB203F00F03DAB240F29053C2F2E1
:1033B80000031A7040F29053C2F200031B78002BEE
:1033C80040F06F814FF4B843C4F200031B689AB20F
:1033D80040F28253C2F200031A8040F28253C2F2D2
:1033E80000031B889BB203F030039AB240F2845367
:1033F800C2F200031A8040F28253C2F200031B8813
:103408009BB203F440539AB240F28253C2F20003D3
:103418001A804FF4B843C4F200031B689BB24BF602
:10342800BF741C4084F4005484F020044FF4B84264
:10343800C4F20002A1B248F28003CFF6FF730B4337
:103448009BB2136040F28473C2F200031B889BB2E4
:1034580003F01003002B5AD14FF4B843C4F2000311
:103468004FF4B842C4F20002126892B2114648F60C
:103478000F720A401A60FFF749FA4FF4B843C4F2D2
:1034880000031B689BB24BF6BF741C4040F282538A
:10349800C2F200031B889BB203F480539BB2002B3B
:1034A80001D084F4805440F28253C2F200031B8896
:1034B8009BB203F400539BB2002B01D084F4005458
:1034C80040F28453C2F200031B889BB203F010033E
:1034D8009BB2002B01D084F0100440F28453C2F256
:1034E80000031B889BB203F020039BB2002B01D082
:1034F80084F020044FF4B842C4F20002A1B248F2AA
:103508008003CFF6FF730B439BB213604BE14FF47C
:10351800B843C4F200031B689BB2FB80FB889BB2D4
:1035280003F40063002B5AD04FF4B843C4F20003ED
:103538004FF4B842C4F20002126892B2114640F643
:103548008F720A401A60FFF751F94FF4B843C4F27A
:1035580000031B689BB24BF6BF741C4040F28253B9
:10356800C2F200031B889BB203F480539BB2002B6A
:1035780001D084F4805440F28253C2F200031B88C5
:103588009BB203F400539BB2002B01D084F4005487
:1035980040F28453C2F200031B889BB203F010036D
:1035A8009BB2002B01D084F0100440F28453C2F285
:1035B80000031B889BB203F020039BB2002B01D0B1
:1035C80084F020044FF4B842C4F20002A1B248F2D9
:1035D8008003CFF6FF730B439BB21360E3E0FB88D5
:1035E8009BB29BB21BB2002B80F2CB804FF4B84346
:1035F800C4F200034FF4B842C4F20002126892B257
:10360800114640F68F720A401A60FFF7DDF94FF451
:10361800B843C4F200031B689BB24BF6BF741C404E
:1036280040F28253C2F200031B889BB203F480531A
:103638009BB2002B01D084F4805440F28253C2F232
:1036480000031B889BB203F400539BB2002B01D0EC
:1036580084F4005440F28453C2F200031B889BB2E6
:1036680003F010039BB2002B01D084F0100440F249
:103678008453C2F200031B889BB203F020039BB261
:10368800002B01D084F020044FF4B842C4F20002A9
:10369800A1B248F28003CFF6FF730B439BB21360CD
:1036A80081E040F29053C2F200031B784FEA830393
:1036B80003F1804303F5B8431B689BB2FB80FB888A
:1036C8009BB29BB21BB2002B2ADA40F29053C2F293
:1036D80000031B784FEA830303F1804303F5B843E3
:1036E80040F29052C2F2000212784FEA820202F1CE
:1036F800804202F5B842126892B2114640F68F72C3
:103708000A401A6040F29053C2F200031B7803F19A
:10371800FF3240F20C13C2F2000353F822309847EC
:10372800FB889BB203F08003002B2AD040F2905311
:10373800C2F200031B784FEA830303F1804303F5C9
:10374800B84340F29052C2F2000212784FEA820265
:1037580002F1804202F5B842126892B2114648F668
:103768000F720A401A6040F29053C2F200031B78AD
:1037780003F1FF3240F2F003C2F2000353F82230A3
:10378800984745F64443C4F200031B689BB21A46A7
:1037980040F28473C2F200031146198093B21BB23F
:1037A800002BFFF6F8AD07F10C07BD4690BD00BF32
:1037B80080B500AF40F2B453C2F2000340F2945215
:1037C800C2F200021A6040F2B453C2F200031B684E
:1037D8004FF002021A7240F28C53C2F2000340F218
:1037E8005C02C2F200021A6040F2B053C2F2000357
:1037F80040F28C02C2F200021A6040F28C53C2F20C
:1038080000031B681B68984780BD00BF80B584B063
:1038180000AF78604FF00003FB734FF00003BB73F9
:1038280000F0FEF87B681A787B685B781343DAB29D
:103838007B689B781343DAB27B68DB781343DAB290
:10384800FB7B1343DBB2FB737B681A797B685B797C
:103858001343DAB27B689B791343DAB2BB7B134319
:10386800DBB2BB7307F10F0318464FF020014FF08E
:10387800010200F05DF807F10E0318464FF023012E
:103888004FF0010200F054F807F11007BD4680BD63
:1038980080B584B000AF786007F10F0318464FF089
:1038A80021014FF0010200F07BF8FB7B23F03F037E
:1038B800DBB2FB737B681A787B685B781343DAB2F8
:1038C800FB7B1343DBB2FB7307F10F0318464FF082
:1038D80021014FF0010200F02BF807F11007BD4657
:1038E80080BD00BF80B584B000AF0346FB7107F10F
:1038F8000F0318464FF024014FF0010200F050F872
:10390800FB7B23F01003DBB2FB73FA7BFB791343D9
:10391800DBB2FB7307F10F0318464FF024014FF099
:10392800010200F005F807F11007BD4680BD00BF91
:1039380080B582B000AF786013460A46FA703B80C3
:103948003B88012B03D9FB7843F04003FB704FF40D
:103958008050C4F600004FF00801FDF7F3FDFB7836
:10396800184600F03FF90CE07B681B78184600F019
:1039780039F93B8803F1FF333B807B6803F101038E
:103988007B603B88002BEFD14FF48050C4F60000D9
:103998004FF00801FDF7C8FD07F10807BD4680BDD7
:1039A80080B582B000AF786013460A46FA703B8053
:1039B8003B88012B04D9FB7863F03F03FB7003E0DD
:1039C800FB7863F07F03FB704FF48050C4F600006F
:1039D8004FF00801FDF7B6FDFB78184600F002F934
:1039E8000FE04FF0000000F0FDF803461A467B6830
:1039F8001A703B8803F1FF333B807B6803F10103B6
:103A08007B603B88002BECD14FF48050C4F600005B
:103A18004FF00801FDF788FD07F10807BD4680BD96
:103A280080B588B000AF4FF480504FF00101FDF72A
:103A3800C7F84FF400304FF00101FDF797F84FF445
:103A480000104FF00101FDF791F84FF400104FF00E
:103A58000101FDF78BF84FF400104FF00101FDF75D
:103A680085F84FF090404FF005014FF00502FDF743
:103A780077FD4FF090404FF006014FF00502FDF73B
:103A88006FFD4FF090404FF007014FF00502FDF732
:103A980067FD4FF002033B774FF00003BB774FF011
:103AA8000003FB774FF003037B774FF02003BB61E4
:103AB80007F118034FF090401946FDF78DFC4FF0C1
:103AC8008003BB6107F118034FF090401946FDF7DA
:103AD80083FC4FF04003BB6107F118034FF090409F
:103AE8001946FDF779FC4FF44050C4F20100FDF788
:103AF80019FB4FF00003BB804FF4E0633B814FF0AC
:103B080000037B814FF00003BB814FF40073FB81FE
:103B18004FF010033B824FF000037B824FF0070306
:103B2800BB824FF48273FB8007F104034FF44050CB
:103B3800C4F201001946FDF739FB4FF44050C4F2B6
:103B480001004FF48051FDF7DDFB4FF44050C4F203
:103B580001004FF00101FDF7B5FB4FF00803BB6111
:103B68004FF001033B774FF00003BB774FF003039F
:103B78007B7707F118034FF48050C4F6000019460C
:103B8800FDF72AFC4FF48050C4F600004FF00801FE
:103B9800FDF7CAFC4FF00103BB614FF000033B7710
:103BA8004FF00003BB774FF003037B774FF0000320
:103BB800FB7707F118034FF48050C4F6000019464C
:103BC800FDF70AFC4FF00203BB6107F118034FF43D
:103BD8008050C4F600001946FDF7FEFB07F12007E8
:103BE800BD4680BD80B582B000AF0346FB7140F290
:103BF8002C03C2F200034FF480521A6017E040F21F
:103C08002C03C2F200031B68002B14BF0022012200
:103C1800D2B203F1FF3140F22C03C2F20003196063
:103C2800002A04D000F0E2FD0346DBB244E04FF482
:103C38004050C4F201004FF00201FDF7ADFB03460E
:103C4800002BDCD0FB794FF44050C4F20100194638
:103C5800FDF774FB40F22C03C2F200034FF48052CC
:103C68001A6017E040F22C03C2F200031B68002B15
:103C780014BF00220122D2B203F1FF3140F22C031B
:103C8800C2F200031960002A04D000F0AFFD034619
:103C9800DBB211E04FF44050C4F201004FF00101D3
:103CA800FDF77AFB0346002BDCD04FF44050C4F2FA
:103CB8000100FDF75BFB0346184607F10807BD4600
:103CC80080BD00BF80B584B000AF78604FF00003BE
:103CD800FB734FF00003BB7300F004FB7B681A789A
:103CE8007B685B781343DAB27B689B781343DAB25C
:103CF800FB7B1343DBB2FB737B681A797B685B79C8
:103D08001343DAB27B689B791343DAB27B68DB78BA
:103D18001343DAB2BB7B1343DBB2BB7307F10F0368
:103D28004FF032004FF020011A4600F085F807F1F5
:103D38000E034FF032004FF023011A4600F07CF8D2
:103D480007F11007BD4680BD80B584B000AF78602C
:103D580007F10F034FF032004FF021011A464FF0E0
:103D6800010300F089F9FB7B03F00C03DBB2FB7362
:103D78007B681A787B685B781343DAB27B689B7838
:103D88001343DAB27B68DB781343DAB2FB7B134365
:103D9800DBB2FB7307F10F034FF032004FF0210144
:103DA8001A4600F049F807F11007BD4680BD00BF6C
:103DB80080B584B000AF78604FF00003FB734FF01C
:103DC8000003BB734FF000037B7300F08BFA7B6832
:103DD8001A787B685B781343DAB2FB7B1343DBB258
:103DE800FB737B68DA78BB7B1343DBB2BB737B68FE
:103DF8009A787B7B1343DBB27B7307F10F034FF099
:103E08003C004FF000011A4600F016F807F10E03C7
:103E18004FF03C004FF001011A4600F00DF807F191
:103E28000D034FF03C004FF002011A4600F004F871
:103E380007F11007BD4680BD80B584B002AF0B46C0
:103E48003A600246FA71BB7140F23003C2F20003D5
:103E58004FF420421A6017E040F23003C2F2000328
:103E68001B68002B14BF00220122D2B203F1FF31DC
:103E780040F23003C2F200031960002A04D000F0B7
:103E8800ADFC03469BB2F1E04FF4A840C4F2000039
:103E98004FF40041FCF7F6FA0346002BDCD1FB791E
:103EA8009BB24FF4005200924FF4A840C4F20000B5
:103EB80019464FF001024FF08073FCF797FA40F271
:103EC8003003C2F200034FF420421A6017E040F2B8
:103ED8003003C2F200031B68002B14BF002201222A
:103EE800D2B203F1FF3140F23003C2F2000319608D
:103EF800002A04D000F072FC03469BB2B6E04FF4EF
:103F0800A840C4F200004FF00201FCF7BBFA0346D8
:103F1800002BDCD0BB794FF4A840C4F2000019464E
:103F2800FCF794FA40F23003C2F200034FF4204247
:103F38001A6017E040F23003C2F200031B68002B3E
:103F480014BF00220122D2B203F1FF3140F2300344
:103F5800C2F200031960002A04D000F03FFC0346B7
:103F68009BB283E04FF4A840C4F200004FF08001F8
:103F7800FCF788FA0346002BDCD0FB799BB24FF0A4
:103F8800000200924FF4A840C4F2000019464FF016
:103F980001024FF00073FCF729FA40F23003C2F235
:103FA80000034FF420421A6017E040F23003C2F2D7
:103FB80000031B68002B14BF00220122D2B203F1B8
:103FC800FF3140F23003C2F200031960002A04D026
:103FD80000F004FC03469BB248E04FF4A840C4F24A
:103FE80000004FF00201FCF74DFA0346002BDCD02D
:103FF8003B681B784FF4A840C4F200001946FCF750
:1040080025FA40F23003C2F200034FF420421A604E
:1040180017E040F23003C2F200031B68002B14BF04
:1040280000220122D2B203F1FF3140F23003C2F282
:1040380000031960002A04D000F0D0FB03469BB2AD
:1040480014E04FF4A840C4F200004FF02001FCF740
:1040580019FA0346002BDCD04FF4A840C4F2000044
:104068004FF02001FCF732FA4FF00003184607F131
:104078000807BD4680BD00BF80B584B002AF3A6076
:104088000246FA710A46BA71BB8040F23003C2F2A6
:1040980000034FF420421A6017E040F23003C2F2E6
:1040A80000031B68002B14BF00220122D2B203F1C7
:1040B800FF3140F23003C2F200031960002A04D035
:1040C80000F08CFB03469BB206E14FF4A840C4F213
:1040D80000004FF40041FCF7D5F90346002BDCD172
:1040E800FB799BB24FF4005200924FF4A840C4F2FF
:1040F800000019464FF001024FF00003FCF776F973
:1041080040F23003C2F200034FF420421A6017E075
:1041180040F23003C2F200031B68002B14BF0022D8
:104128000122D2B203F1FF3140F23003C2F20003A0
:104138001960002A04D000F051FB03469BB2CBE083
:104148004FF4A840C4F200004FF00201FCF79AF9BE
:104158000346002BDCD0BB88012B03D9BB7963F065
:104168007F03BB71BB794FF4A840C4F20000194625
:10417800FCF76CF940F23003C2F200034FF420421E
:104188001A6017E040F23003C2F200031B68002BEC
:1041980014BF00220122D2B203F1FF3140F23003F2
:1041A800C2F200031960002A04D000F017FB03468E
:1041B8009BB291E04FF4A840C4F200004FF04001D8
:1041C800FCF760F90346002BDCD0FB799AB2BB8878
:1041D800DBB24FF4105100914FF4A840C4F2000034
:1041E80011461A464FF00073FCF700F93CE040F224
:1041F8003003C2F200034FF420421A6017E040F285
:104208003003C2F200031B68002B14BF00220122F6
:10421800D2B203F1FF3140F23003C2F20003196059
:10422800002A04D000F0DAFA03469BB254E04FF4B7
:10423800A840C4F200004FF00401FCF723F903463C
:10424800002BDCD04FF4A840C4F20000FCF70CF9B6
:1042580003461A463B681A703B6803F101033B604A
:10426800BB8803F1FF33BB80BB88002BBFD140F272
:104278003003C2F200034FF420421A6017E040F204
:104288003003C2F200031B68002B14BF0022012276
:10429800D2B203F1FF3140F23003C2F200031960D9
:1042A800002A04D000F09AFA03469BB214E04FF4B7
:1042B800A840C4F200004FF02001FCF7E3F80346E1
:1042C800002BDCD04FF4A840C4F200004FF02001CE
:1042D800FCF7FCF84FF00003184607F10807BD4645
:1042E80080BD00BF80B58CB000AF4FF400104FF018
:1042F8000101FCF78FFC4FF480204FF00101FCF71F
:1043080035FC4FF400104FF00101FCF72FFC4FF47F
:1043180000104FF00101FCF729FC4FF400104FF09A
:104328000101FCF723FC4FF48060C4F600004FF055
:1043380006014FF00402FDF713F94FF48060C4F64C
:1043480000004FF007014FF00402FDF709F94FF0A4
:10435800020387F82C304FF0000387F82E304FF017
:10436800020387F82F304FF0030387F82D304FF002
:104378004003BB6207F128034FF48060C4F60000D5
:104388001946FDF729F84FF08003BB6207F12803AF
:104398004FF48060C4F600001946FDF71DF84FF091
:1043A800000387F82C304FF0000387F82E304FF0C9
:1043B800000387F82F304FF0030387F82D304FF0B4
:1043C8000403BB6207F128034FF48050C4F60000D1
:1043D8001946FDF701F84FF004004FF00201FCF711
:1043E800E9FC4FF002033B624FF0000387F82430EA
:1043F8004FF0080387F825304FF0010387F826307F
:1044080007F120031846FCF72DFD4FF000033B6130
:104418004FF00003BB604FF00003FB604FF0000358
:104428007B614FF00003BB614FF00003FB6142F278
:104438002503C0F290037B6007F104034FF4A84002
:10444800C4F200001946FBF74DFF4FF4A840C4F230
:1044580000004FF00101FBF7ADFF4FF01003BB6206
:104468004FF0000387F82C304FF0000387F82E3008
:104478004FF0030387F82D304FF0000387F82F30F3
:1044880007F128034FF48050C4F600001946FCF7E2
:10449800A3FF4FF02003BB6207F128034FF48050BD
:1044A800C4F600001946FCF797FF07F13007BD4630
:1044B80080BD00BF80B584B000AF4FF008033B72E9
:1044C8004FF0C0037B724FF00703BB724FF030030D
:1044D800FB724FF080033B734FF040037B734FF048
:1044E8001003BB7307F108031846FFF78FF94FF065
:1044F80000033B714FF000037B7107F1040318467A
:10450800FFF7C6F94FF01000FFF7ECF907F11007B5
:10451800BD4680BD80B586B000AF78604FF000031F
:10452800FB604FF000033B824FF00003FB724FF03B
:1045380000037B6107F10B0318464FF023014FF08E
:104548000102FFF72DFA07F10C0318464FF0280176
:104558004FF00602FFF724FA4FF000037B6120E0DA
:104568007B694FEA43037A68D3187A694FEA4202B3
:1045780002F1010207F11800821812F80C2C4FEA18
:10458800022291B27A694FEA420207F118008218B2
:1045980012F80C2C8A1892B21A807B6903F1010375
:1045A8007B617B69022BDBDD07F11807BD4680BD07
:1045B80080B584B000AF4FF000033B734FF01C038D
:1045C8007B734FF02003FB7340F23403C2F2000305
:1045D8004FF000021A604FF00103BB7307F10C03A0
:1045E8001846FFF7E5FB4FF000033B714FF07003EF
:1045F8007B714FF00703BB714FF01003BB724FF094
:1046080080033B724FF040037B724FF00803FB714D
:1046180007F104031846FFF755FB4FF080033B7082
:104628004FF010037B704FF00003BB704FF0000396
:10463800FB703B461846FFF787FB07F11007BD469E
:1046480080BD00BF80B582B000AF78604FF0320007
:104658004FF0280140F2BC52C2F200024FF00603AC
:10466800FFF70AFD40F27553C2F200034FF0000253
:104678001A7035E040F27553C2F200031B784FEA16
:1046880043037A68D21840F27553C2F200031B78CC
:104698004FEA430303F1010140F2BC53C2F20003A5
:1046A8005B5C4FEA032399B240F27553C2F20003F0
:1046B8001B784FEA430040F2BC53C2F200031B5C74
:1046C800CB189BB2138040F27553C2F200031B78DB
:1046D80003F10103DAB240F27553C2F200031A7013
:1046E80040F27553C2F200031B78022BC2D907F1BE
:1046F8000807BD4680BD00BF80B582B000AF7860B6
:104708004FF03C004FF0030140F2BC52C2F20002ED
:104718004FF00603FFF7B0FC40F27553C2F20003F6
:104728004FF000021A7035E040F27553C2F20003F0
:104738001B784FEA43037A68D21840F27553C2F2E5
:1047480000031B784FEA430140F2BC53C2F2000356
:104758005B5C4FEA032399B240F27553C2F200033F
:104768001B784FEA430303F1010040F2BC53C2F245
:1047780000031B5CCB189BB2138040F27553C2F246
:1047880000031B7803F10103DAB240F27553C2F259
:1047980000031A7040F27553C2F200031B78022B13
:1047A800C2D97B6803F102027B6803F102031B880C
:1047B80007EE903AB8EEE77A40F23403C2F200030B
:1047C800D3ED007A67EE277AFCEEE77A17EE903A97
:1047D8009BB2138007F10807BD4680BD80B400AFC7
:1047E8004FF000031846BD4680BC704780B400AF48
:1047F8004FF000031846BD4680BC704780B400AF38
:1048080040F27853C2F200031B681846BD4680BCCC
:10481800704700BF80B400AF40F27853C2F2000383
:104828001B6803F1010240F27853C2F200031A60D8
:10483800BD4680BC704700BF80B483B000AF03465C
:104848003960FB7197F90730002B10DA4FF46D438C
:10485800CEF20003FA7902F00F02A2F104013A68DD
:10486800D2B24FEA0212D2B25B181A760DE04FF4B8
:104878006143CEF2000397F907103A68D2B24FEAC3
:104888000212D2B25B1883F8002307F10C07BD4669
:1048980080BC704780B582B000AF78607A686FF0EE
:1048A8007F439A4202D94FF001031FE04EF21003F2
:1048B800CEF200037A6822F07F4202F1FF325A609A
:1048C8004FF0FF304FF00F01FFF7B6FF4EF2100325
:1048D800CEF200034FF000029A604EF21003CEF2BF
:1048E80000034FF007021A604FF00003184607F163
:1048F8000807BD4680BD00BF80B588B000AF03463D
:104908003960FB714FF00003FB77FB7F07F1200153
:10491800CB18FA7903F8142CFB7F03F10103FB771A
:10492800FB7F07F12002D318FA7903F8142CFB7FD8
:1049380003F10103FB774FF00003BB7779E0FB7FBE
:10494800BA7F4FEA420239688A1812884FEA12225F
:1049580092B2D2B207F12001CB1803F8142CFB7FD6
:1049680003F10103FB77BB7F4FEA43033A68D3188F
:104978001B884FEA13239BB2412B15D0BB7F4FEA0C
:1049880043033A68D3181B884FEA13239BB2472B7B
:104998000AD0BB7F4FEA43033A68D3181B884FEA13
:1049A80013239BB24D2B0BD1FB7F07F12002D318A9
:1049B8004FF0620203F8142CFB7F03F10103FB772D
:1049C800FB7FBA7F4FEA420239688A181288D2B24E
:1049D80007F12001CB1803F8142CFB7F03F1010326
:1049E800FB77BB7F4FEA43033A68D3181B88412BF8
:1049F8000FD0BB7F4FEA43033A68D3181B88472B75
:104A080007D0BB7F4FEA43033A68D3181B884D2B66
:104A18000BD1FB7F07F12002D3184FF0620203F895
:104A2800142CFB7F03F10103FB77BB7F03F1010328
:104A3800BB77BB7F022B82D9FB7F07F10C021046A4
:104A4800194600F093F907F12007BD4680BD00BF65
:104A580080B586B000AF40F2C850C2F20000FBF744
:104A6800CDFD40F2C853C2F200035A684DF6836385
:104A7800C4F21B33A3FB02134FEA93431846FFF714
:104A880009FF00F08BF9FFF715FDFFF791FD4FF0D7
:104A980000037B614FF000033B614FF00003FB60B4
:104AA800FFF7ACFEB86000E000BFFFF7A7FE0246C4
:104AB8007B69D21A40F223539A420CD93B461846D6
:104AC800FFF728FD3B464FF047001946FFF714FF54
:104AD800FFF794FE7861FFF791FE02463B69D21A10
:104AE80040F6C4139A420CD93B461846FFF7AAFD74
:104AF8003B464FF041001946FFF7FEFEFFF77EFEEA
:104B08003861FFF77BFE0246FB68D21A41F2C113F7
:104B18009A420CD93B461846FFF7EEFD3B464FF04C
:104B28004D001946FFF7E8FEFFF768FEF8604FF002
:104B380000033B80FFF762FE03469BB27B804FF485
:104B48007F43BB803B464FF054001946FFF7D4FE25
:104B5800FFF754FE0246BB68D21A40F2E7339A4286
:104B6800A2D93B464FF053001946FFF7C5FEFFF7A1
:104B780045FEB86098E700BF80B400AFBD4680BC72
:104B8800704700BF80B400AFFEE700BF80B400AF3D
:104B9800FEE700BF80B400AFFEE700BF80B400AFFF
:104BA800FEE700BF80B400AFBD4680BC704700BFC1
:104BB80080B400AFBD4680BC704700BF80B400AF72
:104BC800BD4680BC704700BF80B500AF00F02EFE28
:104BD80080BD00BF80B500AF4FF0000000F086FF39
:104BE8004FF01200FCF782FA80BD00BF80B582B09A
:104BF80000AF40F23903C2F200031B78DBB2002B8E
:104C080064D040F23803C2F200031B78DBB2002BF9
:104C180003D04FF09803FB8002E04FF4A673FB80AB
:104C280040F20463C2F200031B683B6040F2086371
:104C3800C2F200031A6840F20463C2F200031A6069
:104C480040F20863C2F200033A681A6040F208634F
:104C5800C2F200031A68FB88104619464FF0B402E6
:104C6800FCF7D2FC40F23A03C2F200031B787B71D6
:104C780010E040F20463C2F200031A687B79D2188C
:104C880040F23B03C2F200031B7813707B7903F1F7
:104C980001037B717B79B32BEBD940F27C53C2F2D1
:104CA80000034FF000021A7040F27D53C2F2000375
:104CB8004FF000021A7040F23903C2F200034FF0BD
:104CC80000021A704FF00100FEF700F807F108071C
:104CD800BD4680BD80B485B000AF78600B467B8050
:104CE80040F27C53C2F200031B78DBB21A467B8881
:104CF800D21840F23A03C2F200031B78C3F1B3039F
:104D08009A4202DB4FF0000329E04FF00003FB81D9
:104D18004FF00003FB811DE040F20463C2F2000380
:104D2800196840F27C53C2F200031B78DBB21A46C2
:104D38008A18F989786841180978117003F1010314
:104D4800DAB240F27C53C2F200031A70FB8903F115
:104D58000103FB81FA897B889A42DDD37B88184658
:104D680007F11407BD4680BC704700BF80B582B00C
:104D780000AF78600B467B8001E0FFF737FF7B8848
:104D880078681946FFF7A6FF02467B889A42F4D155
:104D98007B88184607F10807BD4680BD80B500AF7F
:104DA80000F0A2FB00F00EFC00F072FCFEF700FD24
:104DB80040F20463C2F2000340F20C62C2F2000245
:104DC8001A6040F20863C2F2000340F2C062C2F205
:104DD80000021A6000BF40F27F53C2F200031B7842
:104DE800DBB2052BF7D180BD80B500AF4FF46D4322
:104DF800CEF200034FF46D42CEF20002D2F88820C2
:104E080042F47002C3F888204FF48053C4F20203BE
:104E18004FF48052C4F20202126842F001021A6092
:104E28004FF48052C4F202024FF48053C4F20203DA
:104E380059684CF20C03CFF67F030B4053604FF4D4
:104E48008053C4F202034FF48052C4F20202126883
:104E580022F0847222F480321A604FF48053C4F234
:104E680002034FF48052C4F20202126822F4802234
:104E78001A604FF48053C4F202034FF48052C4F214
:104E88000202526822F4FE025A604FF48053C4F2C0
:104E980002034FF48052C4F20202D26A22F00F02D7
:104EA800DA624FF48052C4F202024FF48053C4F223
:104EB8000203196B4FF6CC43CFF600730B40136314
:104EC8004FF48053C4F202034FF000029A6000F0DE
:104ED80009F84FF46D43CEF200034FF000629A6078
:104EE80080BD00BF80B483B000AF4FF000037B608B
:104EF8004FF000033B604FF48053C4F202034FF4B9
:104F08008052C4F20202126842F4A0221A604FF4DE
:104F18008053C4F202031B6803F400333B607B68D0
:104F280003F101037B603B68002B03D17B68B3F579
:104F3800A06FECD14FF48053C4F202031B6803F452
:104F48000033002B03D04FF001033B6002E04FF029
:104F580000033B603B68012B76D14FF40053C4F249
:104F680002034FF012021A604FF48053C4F2020396
:104F78004FF48052C4F2020252685A604FF48053D0
:104F8800C4F202034FF48052C4F2020252685A601B
:104F98004FF48053C4F202034FF48052C4F2020269
:104FA800526842F480625A604FF48053C4F202039C
:104FB8004FF48052C4F20202526822F47C125A6002
:104FC8004FF48053C4F202034FF48052C4F2020239
:104FD800526842F4E8125A604FF48053C4F2020354
:104FE8004FF48052C4F20202126842F080721A60D2
:104FF80000BF4FF48053C4F202031B6803F0007330
:10500800002BF6D04FF48053C4F202034FF48052C1
:10501800C4F20202526822F003025A604FF480532D
:10502800C4F202034FF48052C4F20202526842F002
:1050380002025A6000BF4FF48053C4F202035B6857
:1050480003F00C03082BF6D107F10C07BD4680BC12
:10505800704700BF80B500AF4FF00100FDF788FD35
:10506800034603F48043002B07D040F23803C2F212
:1050780000034FF000021A7006E040F23803C2F253
:1050880000034FF001021A704FF001004FF00201C7
:10509800FEF71AF940F23903C2F200034FF0010299
:1050A8001A7080BD80B500AF00F046FB40F2B453E3
:1050B800C2F200031B684FF000029A7200F08CFCE9
:1050C800FCF71CFB40F27F53C2F200034FF00002D2
:1050D8001A7080BD80B500AF40F2B453C2F200032D
:1050E8001B684FF000029A7240F2B453C2F20003F8
:1050F8001B684FF00002DA7240F2B453C2F20003A8
:105108001A6845F69463C0F60003DB7953724FF0D2
:105118000000FDF719FD4FF000004FF40071FDF796
:105128003BFD4FF000004FF01001FDF75BFD4FF025
:1051380000004FF01801FDF7F5FE4FF000004FF0AA
:105148005801FDF7CBFE4FF00000FDF717FE40F2C7
:105158005C03C2F2000393F82C304FF000001946AC
:10516800FDF764FF4FF00000FDF7DCFD4FF0010094
:105178004FF48061FDF710FD4FF001004FF09801EA
:105188004FF4A672FDF79EFF4FF001004FF00201A9
:105198004FF0B402FDF7D6FF4FF00100FDF73EFED9
:1051A8004FF00100FDF76AFE4FF00100FDF712FE17
:1051B8004FF001004FF03001FDF74EFD4FF00100B8
:1051C8004FF00001FDF70EFD4FF00000FDF772FCF7
:1051D80040F27F53C2F200034FF001021A7080BD03
:1051E80080B483B000AF40F29453C2F200037B60F6
:1051F8007B689B7A002B06D040F27F53C2F20003F3
:105208004FF005021A7007F10C07BD4680BC7047C5
:1052180080B400AF40F27F53C2F200034FF00402A3
:105228001A70BD4680BC704780B400AFBD4680BCD4
:10523800704700BF80B400AFBD4680BC704700BF58
:1052480080B584B000AF0346FB714FF00003FB60EC
:10525800FB79062B2DD140F2B453C2F200031B6830
:105268001B7803F07F03012B23D140F2B453C2F221
:1052780000031B685B79002B1BD140F2B453C2F2C8
:1052880000031B689B78222B05D145F2FD33C0F63D
:105298000003FB6020E040F2B453C2F200031B6835
:1052A8009B78212B18D145F22543C0F60003FB60FB
:1052B80012E040F2B453C2F200031B681B7803F0FB
:1052C8007F03212B09D1FB79032B06D145F2B54386
:1052D800C0F60003FB6000E000BFFB68002B02D1B2
:1052E8004FF0020314E040F2B453C2F200031B680B
:1052F800FA689A6140F2B453C2F200031B684FF097
:1053080000025A82FB684FF0000098474FF00003F4
:10531800184607F11007BD4680BD00BF80B582B0B2
:1053280000AF0346FB7140F2B453C2F200031B689E
:105338001B7803F07F03212B06D1FB790B2B03D1BC
:1053480000F09CF8034601E04FF00203184607F10D
:105358000807BD4680BD00BF80B582B000AF0346D8
:10536800FB80FB88184640F2B001C2F20001FCF74E
:1053780085FD0346184607F10807BD4680BD00BFF6
:1053880080B582B000AF0346FB80FB88184640F228
:10539800B801C2F20001FCF771FD0346184607F197
:1053A8000807BD4680BD00BF80B584B000AF034686
:1053B800FB8040F2B453C2F200031B68DB78FB7336
:1053C800FB7B042B02D94FF000030DE0FB7B4FEA77
:1053D800C30240F2D003C2F20003D318FA88104681
:1053E8001946FCF74BFD0346184607F11007BD4662
:1053F80080BD00BF80B582B000AF0346FB80FB884C
:10540800184640F2C001C2F20001FCF737FD03461E
:10541800184607F10807BD4680BD00BF80B582B0B9
:1054280000AF0346FB80FB88184640F2C801C2F271
:105438000001FCF723FD0346184607F10807BD469F
:1054480080BD00BF80B483B000AF02460B46FA713E
:10545800BB71BB79012B02D94FF0020307E0FB793E
:10546800012B02D94FF0020301E04FF00003184668
:1054780007F10C07BD4680BC704700BF80B483B0FD
:1054880000AF40F2B453C2F200031B68DB78FB7133
:10549800FA7940F27473C2F200031A604FF0000305
:1054A800184607F10C07BD4680BC704780B483B02E
:1054B80000AF0346FB80FB88002B0AD140F2B453AF
:1054C800C2F200031B684FF001021A824FF000037A
:1054D80003E040F27473C2F20003184607F10C07A8
:1054E800BD4680BC704700BF80B582B000AF4FF0AA
:1054F80080504FF00101FBF78DFB4FF001004FF09A
:105508000101FBF75DFB4FF400104FF00101FBF7C1
:105518002DFB4FF400304FF00101FBF727FB4FF450
:10552800C0533B604FF003037B714FF002033B71A4
:105538004FF00003BB714FF00003FB713B464FF087
:1055480090401946FBF748FF4FF090404FF00B0191
:105558004FF00E02FCF704F84FF090404FF00C01AA
:105568004FF00E02FBF7FCFF4FF01200FBF7BEFDF9
:1055780040F27C73C2F200034FF012021A6040F24C
:105588007C73C2F200034FF000021A7140F27C7380
:10559800C2F200034FF008025A7140F27C73C2F263
:1055A80000034FF001029A7140F27C70C2F20000D1
:1055B800FBF758FC4FF00000FBF798FD07F10807D0
:1055C800BD4680BD80B500AF4FF00000FBF7BEFAC6
:1055D8004FF400004FF00101FBF71CFB80BD00BF3A
:1055E80080B500AF40F27F53C2F200034FF00302D0
:1055F8001A704FF00000FBF779FD80BD80B582B0CE
:1056080000AF40F29453C2F200037B604FF00100F8
:10561800FAF76AFFFAF780FF03461A4640F27873F2
:10562800C2F200031A7000BF4FF01100FBF770FBC5
:105638000346002BF8D04FF00100FAF79FFF00BF98
:105648004FF01900FBF764FB0346002BF8D04FF02E
:105658000200FAF7A3FF00BFFAF7C0FF0346082BC2
:10566800FAD17B689B7A002B07D040F27F53C2F2B5
:1056780000034FF005021A7006E040F27F53C2F2B1
:1056880000034FF001021A7007F10807BD4680BDFC
:1056980080B582B000AF4FF4A060FAF79BFD4FF0E1
:1056A80014033B714FF002037B714FF00003BB7191
:1056B8004FF00103FB7107F104031846FAF79EFD4A
:1056C8004FF02A033B714FF001037B714FF0010348
:1056D800FB7107F104031846FAF790FD4FF0060333
:1056E8003B714FF000037B7107F104031846FAF78A
:1056F80085FD07F10807BD4680BD00BF80B582B0B3
:1057080000AF0346FB71FB79002B08D04FF48050A3
:10571800C4F600004FF48041FBF714FF07E04FF494
:105728008050C4F600004FF48041FBF7FDFE07F1FE
:105738000807BD4680BD00BF80B584B000AF4FF2FA
:10574800E873C1F6FF731B68FB604FF2EC73C1F698
:10575800FF731B68BB604FF2F073C1F6FF731B68E1
:105768007B60FA687B68D318FB60FB68002B0BD062
:10577800F86807494FF0080200F00EF8B8680549C4
:105788004FF0040200F008F807F11007BD4680BD8D
:105798003E0000204E00002080B487B000AFF860C3
:1057A800B9601346FB714FF00003FB754FF000031F
:1057B800FB7531E0FB684FEA1373092B0DD8FB7DAD
:1057C8004FEA4303BA68D318FA684FEA1272D2B2A2
:1057D80002F13002D2B21A700CE0FB7D4FEA4303AB
:1057E800BA68D318FA684FEA1272D2B202F13702D5
:1057F800D2B21A70FB684FEA0313FB60FB7D4FEAD5
:10580800430303F10103BA68D3184FF000021A707A
:10581800FB7D03F10103FB75FA7DFB799A42C9D33D
:1058280007F11C07BD4680BC704700BF80B500AFBC
:1058380045F64443C4F200031B689AB240F28473ED
:10584800C2F200031A8040F28473C2F200031B887C
:105858009BB203F4004240F2B853C2F200031B8823
:105868001340002B01D0FDF78FFD40F28473C2F284
:1058780000031B889BB203F4806240F2B853C2F263
:1058880000031B881340002B0CD045F64443C4F298
:1058980000034FF6FF321A6040F25C03C2F20003C5
:1058A8005B68984740F28473C2F200031B889BB27E
:1058B80003F4005240F2B853C2F200031B881340AD
:1058C800002B06D045F64443C4F200034DF6FF72A0
:1058D8001A6040F28473C2F200031B889BB203F47F
:1058E800805240F2B853C2F200031B881340002BC9
:1058F8000AD045F64443C4F200034EF6FF721A601C
:105908004FF0000000F0F2F840F28473C2F2000396
:105918001B889BB203F4006240F2B853C2F2000342
:105928001B881340002B15D040F22813C2F2000345
:105938001B78DBB2002B02D000F08EF803E04FF0AA
:10594800020000F0D3F845F64443C4F200034FF2D6
:10595800FF721A6040F28473C2F200031B889BB284
:1059680003F4007240F2B853C2F200031B881340DC
:10597800002B14D045F64443C4F200034FF6FF52FF
:105988001A6040F27E53C2F200031B78DBB203F1C7
:105998000103DAB240F27E53C2F200031A7040F2F9
:1059A8008473C2F200031B889BB203F4807240F236
:1059B800B853C2F200031B881340002B0AD045F6E7
:1059C8004443C4F200034FF6FF621A604FF0070029
:1059D80000F08CF880BD00BF80B582B000AF4FF0FA
:1059E8000100FFF78BFE4FF00103FB8045F64043B3
:1059F800C4F20003FA881A6040F2B853C2F20003F6
:105A08004FF000021A8045F64043C4F2000340F20A
:105A1800B852C2F2000212881A6045F64443C4F232
:105A280000034FF000021A6040F2B853C2F20003BC
:105A38004FF4E0521A8045F64043C4F2000340F2A6
:105A4800B852C2F2000212881A604FF000031846DA
:105A580007F10807BD4680BD80B582B000AF45F6A6
:105A68004043C4F200031B68FB80FB8843F0080333
:105A7800FB8045F64043C4F20003FA881A6045F6F5
:105A88004043C4F200031B68FB80FB8843F0040317
:105A9800FB8045F64043C4F20003FA881A60FFF71A
:105AA8009FFD07F10807BD4680BD00BF80B582B0E5
:105AB80000AF45F64043C4F200031B68FB80FB8837
:105AC80023F00403FB8045F64043C4F20003FA8840
